:020000040800F2
:10000000580A00205D1B0008651B0008671B0008DC
:10001000691B00086B1B00086D1B00080000000036
:100020000000000000000000000000006F1B00083E
:10003000711B000800000000731B0008211A000853
:10004000771B0008771B0008771B0008771B000848
:10005000771B0008771B0008771B0008771B000838
:10006000771B0008771B0008771B0008771B000828
:10007000771B0008771B0008771B0008771B000818
:10008000771B0008771B0008771B0008771B000808
:10009000771B0008771B0008771B0008771B0008F8
:1000A000771B0008771B0008771B0008771B0008E8
:1000B000771B0008771B0008771B0008771B0008D8
:1000C000771B0008771B0008771B0008771B0008C8
:1000D000771B0008771B0008771B000881040008C5
:1000E000771B0008771B0008771B0008DFF80CD08F
:1000F00001F068FE00480047B9040008580A0020D3
:1001000070B504460D46204600F0B2F870BD10B53B
:10011000044600F0BAF810BD01464FF0FF307047BA
:1001200010B50446204600F0A3F810BD00BFFEE75E
:100130005C48806940F004005A4988610846C069FB
:1001400040F40030C8610846806940F001008861D1
:100150005548406820F008005349486053480068FB
:1001600020F47F40514908600846006840F4306040
:1001700008600846006840F480400860D0204C4980
:10018000088000204A490C310880091F088042F28B
:100190000C00091F08804348806940F480404149B1
:1001A00088614148406820F004003F4948603F486A
:1001B000001D006820F47F603C49091D0860084666
:1001C000006840F0B00008600846006840F48060B5
:1001D000086040F2A11037490880002035490C31F1
:1001E0000880091F088042F20C00091F08802D4872
:1001F000806940F008002B4988610846C06940F4D6
:100200008020C8612848406820F0300026494860B6
:100210002948006820F47F402749086008460068A4
:1002200040F4306008600846006840F48040086090
:10023000D02022490880002020490C310880091F65
:10024000088042F22C00091F0880272000280DDBBF
:1002500000BF00BF00F01F0201219140420992003F
:1002600002F1E022C2F8001100BF00BF00BF7047DA
:1002700000BF10490839098801F080010029F8D031
:10028000C1B20C4A121F1180704709480838008813
:1002900000F0200018B10648001F008870474FF09A
:1002A000FF30FBE700100240000001400008014061
:1002B0000844004008380140040C01400848004050
:1002C000D348006840F00100D149086000BFD04821
:1002D000006800F002000028F9D00020CC494860F6
:1002E00000BFCB48406800F00C000028F9D1102076
:1002F000C84908600846006840F003000860C44828
:100300004068C34948600846406840F480604860DF
:100310000846406848600846006820F08070086021
:100320000846406820F47C1048600846406840F465
:10033000201048600846006840F08070086000E0C7
:1003400000BFB348006800F000700028F8D0B04843
:10035000406820F00300AE4948600846406840F01D
:100360000200486000BFAA48406800F00C0008285E
:10037000F9D17047A648806940F00C00A449886113
:10038000A548006820F07040A3490860084600684E
:1003900040F0805008600846006820F47040086013
:1003A0000846006840F4805008600846006820F461
:1003B000702008600846006840F480300860081F1C
:1003C000006820F00F00091F08600846006840F030
:1003D000010008609148006820F0F0008F49086033
:1003E0000846006840F010000860081D006820F40E
:1003F0007000091D08600846006840F4801008601D
:100400000846006820F0706008600846006840F008
:10041000807008600846006820F070400860084658
:10042000006840F0805008607B48006820F00F00B2
:10043000794908600846006840F001000860002023
:1004400070470146002001228A40734B0C331A602A
:1004500070470146002001F11002012393406E4ACB
:100460000C3213607047014621B110206A4A0C32E9
:10047000106004E04FF48010674A0C32106070473F
:1004800030B56748008800F02000A0B16449091D1C
:1004900008886449096869B9634A10806349644BF4
:1004A0001B6801EB432363490C680968491C614DD3
:1004B0002960185500BF30BD08B501F047FB00BFEB
:1004C000002601F0B6FAFFF7FBFE01F0EFFB504803
:1004D000806940F00C004E498861FFF729FE00F06A
:1004E000F9F900F035FC684600F00EFC07464B4871
:1004F000006820F00F00494908600846006840F095
:1005000001000860012045491031086000BF4648DD
:10051000001F008800F0200000284AD042480488CC
:10052000532C03D101204449086041E0424800684F
:10053000012805D1452C03D102203F49086037E04E
:100540003D480068022805D14E2C03D103203A49CA
:1005500008602DE038480068032829D1442C27D1B1
:10056000002601202F4908601CE0761C33493046E4
:1005700000F047FC074632480068401E30490860DA
:1005800000250CE000BF2848001F008800F0800014
:100590000028F8D02948405D234908806D1CB5F536
:1005A000007FEFDB264800680028DED11D49086087
:1005B00000BF20480068B0F5007FA8DB00201D497F
:1005C00008601B4800681F4908601948006818B196
:1005D00000201749086002E0012015490860134A0D
:1005E000184B1B6802EB4321154A10681268521C15
:1005F000134C226000F0BFFC0746204639460268D3
:1006000011A001F011FC00200A4908607FE70000FA
:10061000001002400020024004080140000C01408C
:10062000004800401C000020044400405800002006
:10063000200000200C00002018000020580400209A
:100640001400002024000020577269746520627530
:100650006666657220737461747573203A20256430
:100660002C20626C6F636B206C656E6774683A2037
:1006700025640A0070B50446002500BF0221F84831
:1006800000F0C5FF0028F9D02146F54800F06CFFC6
:1006900000BF0121F24800F0BAFF0028F9D0F0486D
:1006A00000F064FFC5B2284670BD10B586B00446A0
:1006B0000020ADF804004FF48270ADF80600002071
:1006C000ADF808000220ADF80A000120ADF80C00DA
:1006D0004002ADF80E001CB93820ADF8100002E061
:1006E0000820ADF810000020ADF812000720ADF88A
:1006F000140001A9DA4800F061FE06B010BD70B523
:10070000002500BFFF20FFF7B5FF04464FF6FE703F
:10071000854201D1012070BDFF2CF3D10020FAE702
:1007200070B5054640F6FF7401E0601E84B2FF20FC
:1007300000F06AFDA84201D0002CF6D10CB9FF20D0
:1007400070BD0020FCE770B5FF25002400BFFF202E
:1007500000F05AFD00F01F054FF6FE70844201D1F3
:10076000012070BD641C052D04D00B2D04D00D2D6F
:1007700006D103E0052505E00B20F2E70D20F0E7A8
:10078000FF2500BF00BFFF2DE1D0002405E0641C61
:1007900014F1020F01D3FF20E3E7FF2000F034FD46
:1007A0000028F4D00020DCE72DE9F04105460C4696
:1007B000164600270120FFF756FEFF2000F024FD1B
:1007C000FF2000F021FDFF2000F01EFD0020FFF7BC
:1007D0004AFE45F0400000F017FD200E00F014FD29
:1007E000C4F3074000F010FDC4F3072000F00CFD37
:1007F000E0B200F009FD304600F006FD04E0781C90
:10080000C7B2C82F00DD05E0FF2000F0FDFC8046E8
:10081000FF28F4D000BF0120FFF725FEFF2000F0E5
:10082000F3FC4046BDE8F0812DE9F04105460C4659
:1008300016460027FF2000F0E7FCFF2000F0E4FC54
:100840000020FFF710FE45F0400000F0DDFC200E18
:1008500000F0DAFCC4F3074000F0D6FCC4F3072034
:1008600000F0D2FCE0B200F0CFFC304600F0CCFC4F
:1008700004E0781CC7B2C82F00DD05E0FF2000F0BF
:10088000C3FC8046FF28F4D000BF4046BDE8F0819D
:1008900070B5002504E0FF2000F0B6FC681C85B2AE
:1008A0000A2DF8DB002400BF952200210846FFF73F
:1008B0007BFF0546601CC4B2012D01D0C82CF3DBC0
:1008C000294668A001F0B0FAC82C01D1012070BD02
:1008D0000020FCE77CB56948806940F00400674966
:1008E00088616748006867490840654908600846AC
:1008F0000068654908436249086061480C30006837
:1009000040F012005E490C31086000F0A0FC0120AC
:10091000FFF7A9FDFFF7BCFF08B101207CBD002057
:10092000FFF7A1FD87224FF4D5710820FFF77CFF68
:100930000446052C52D1012054490870FFF793FD5D
:10094000FF2000F061FC002500BF00221146372087
:10095000FFF72AFF0446FF2C01D12046DEE70022E4
:1009600011462920FFF720FF0446681C85B214B108
:10097000B5F5C87FE9DBB5F5C87F15D1002500BF07
:10098000002211460120FFF70FFF0446681C85B2C4
:1009900014B1B5F5C87FF3DBB5F5C87F01D10120EF
:1009A000BCE7002039490870012000F0A1FCFF20BD
:1009B00000F02AFC952200213B20FFF7F5FE0446BB
:1009C0000CB12046AAE795224FF400711020FFF7E2
:1009D000EBFE0446002C7DD020469FE7012C79D108
:1009E000FF2000F011FC8DF80000FF2000F00CFC4F
:1009F0008DF80100FF2000F007FC8DF80200FF20B9
:100A000000F002FC8DF803000120FFF72CFDFF2011
:100A100000F0FAFB002500BF002211463720FFF747
:100A2000C3FE0446012C01D0204677E700224FF098
:100A300080412920FFF7B8FE0446C82D01DD20467D
:100A40006CE7002CE8D1002211463A20FFF7ECFEBB
:100A50000446ECB10120FFF706FD20465EE70000EA
:100A60000030014054686520534420696E69742049
:100A70007265742025640D0A000000000010024019
:100A8000000801400FFFF0FF3000030028000020A5
:100A9000FF2000F0B9FB8DF80000FF2000F0B4FB50
:100AA0008DF80100FF2000F0AFFB8DF80200FF2061
:100AB00000F0AAFB8DF803000120FFF7D4FCFF2013
:100AC00000F0A2FB9DF8000000F0400028B10420D7
:100AD000FB4900E007E0087002E00220F8490870D6
:100AE000012000F005FC204618E77CB54FF4FA60C1
:100AF00000F0D1FF002604E0FF20FFF7BBFD701CD3
:100B000086B20A2EF8DB002500BF95220021084698
:100B1000FFF74AFE0446681C85B2012C01D0C82D9F
:100B2000F3DBC82D01D101207CBD87224FF4D571A4
:100B30000820FFF779FE0446052C49D10120E04941
:100B40000870FFF790FCFF20FFF794FD002500BF21
:100B5000002211463720FFF727FE0446012C01D062
:100B60002046E1E7002211462920FFF71DFE04463A
:100B7000681C85B214B1B5F5C87FE9DBB5F5C87F4F
:100B800015D1002500BF002211460120FFF70CFE01
:100B90000446681C85B214B1B5F5C87FF3DBB5F522
:100BA000C87F01D10120BFE70020C549087001209E
:100BB000FFF77BFDFF20FFF75DFDFF224FF4007183
:100BC0001020FFF7F1FD0446002C70D02046ABE763
:100BD000012C6CD1FF20FFF74DFD8DF80000FF20A8
:100BE000FFF748FD8DF80100FF20FFF743FD8DF86A
:100BF0000200FF20FFF73EFD8DF803000120FFF704
:100C000032FCFF20FFF736FD9DF8020001284ED18F
:100C10009DF80300AA284AD1002500BF00221146F2
:100C20003720FFF7C1FD0446012C01D020467BE7A9
:100C300000224FF080412920FFF7B6FD0446C82D61
:100C400001DD204670E7002CE8D1002211463A2051
:100C5000FFF7EAFD04460CB1204665E7FF20FFF7E9
:100C600009FD8DF80000FF20FFF704FD8DF801005D
:100C7000FF20FFF7FFFC8DF80200FF20FFF7FAFCD2
:100C80008DF803000120FFF7EEFBFF20FFF7F2FCD9
:100C90009DF8000000F0400018B104208849087059
:100CA00002E00220864908700120FFF7FEFC204682
:100CB0003AE770B504460E4615460020FFF7D3FB11
:100CC000FE20FFF72DFD20B10120FFF7CCFB012016
:100CD00070BD04E0FF2000F097FA2070641C301E05
:100CE000A6F101018EB2F5D1FF2000F08DFAFF20B0
:100CF00000F08AFA012D05D10120FFF7B4FBFF2097
:100D000000F082FA0020E3E770B50546FF220021DB
:100D10000A20FFF749FD04460CB1204670BD0122B0
:100D200010212846FFF7C5FF0020F7E770B50546FC
:100D3000FF2200210920FFF737FD04460CB12046B1
:100D400070BD012210212846FFF7B3FF0020F7E70E
:100D50002DE9FF416846FFF7E9FF18B1002004B014
:100D6000BDE8F0819DF8000000F0C000402809D1E6
:100D70009DF8080004029DF80900401C0444A402E8
:100D8000640238E09DF8060000F003054FF6FF709E
:100D900000EA05259DF8070005444FF6FF7000EABC
:100DA00085059DF8080005EB90159DF8090000F0F9
:100DB00003077F009DF80A0007EBD017BF1C012630
:100DC00005E04FF6FF7000EA4606781EC7B2002F16
:100DD000F7D1681C00FB06F49DF8050000F00F0534
:100DE000012605E04FF6FF7000EA4606681E85B250
:100DF000002DF7D17443214632A001F015F82046AA
:100E0000ADE770B505460E46012000F071FA2C489A
:100E10000078042800D06D02002229461120FFF737
:100E2000C3FC04460CB1204670BD0122510230467D
:100E3000FFF73FFF04460CB12046F5E70020F3E73B
:100E40002DE9F05F04460E4617464FF0000BD946D9
:100E50004FEA572B0020FFF706FB3DE006EB090A9F
:100E600017480078042801D14FEA5A2AFF22514638
:100E70001820FFF7D9FC05462DB10120FFF7F3FA42
:100E80000120BDE8F09FFE2000F0BEF94FF0000801
:100E900005E014F8010B00F0B7F908F10108B8F506
:100EA000007FF6D3FF2000F0AFF9FF2000F0ACF98F
:100EB000FFF749FC70B10120FFF7D5FA0220E0E707
:100EC0002800002063617061636974793A20256CA1
:100ED0007500000009F50079BBF10000ABF1010BD2
:100EE000BCD10120FFF7BFFAFF2000F08DF90020F0
:100EF000C7E72DE9F04705460E4617464FF0000AB2
:100F0000D046C14600244FEA572A0020FFF7ABFA2B
:100F100024E006EB0809BB480078042801D14FEA19
:100F20005929FF2249461120FFF77EFC04462CB1C7
:100F30000120FFF798FA2046BDE8F0870122510210
:100F40002846FFF7B6FE044624B10120FFF78BFACE
:100F50002046F1E705F5007508F50078BAF10000C4
:100F6000AAF1010AD5D10120FFF77DFAFF2000F098
:100F70004BF90020E0E72DE9F04105460E46A14877
:100F80000078042800D06D02002229461820FFF7BF
:100F90000BFC044614B12046BDE8F0810020FFF7A9
:100FA00062FAFF2000F030F9FF2000F02DF9FF2059
:100FB00000F02AF9FE2000F027F9002705E016F8D6
:100FC000010B00F021F9781C87B2B7F5007FF6DB42
:100FD000FF2000F019F9FF2000F016F9FF2000F0C3
:100FE00013F9044604F01F00052804D00120FFF780
:100FF0003AFA2046D0E74FF000080CE008F1010073
:101000001FFA80F84FF6FE70804504DD0120FFF7DF
:101010002AFA0120C0E7FF2000F0F6F80028EDD002
:101020000120FFF720FAFF2000F0EEF80020B3E7E0
:101030002DE9F04105460E46144672480078042812
:1010400000D06D02002229461220FFF7ADFB0746B3
:1010500017B13846BDE8F08100BF00224FF400719F
:101060003046FFF726FE00B105E006F50076601E6B
:10107000C0B2041EF1D100BF002211460C20FFF7C0
:1010800093FB0120FFF7EFF9FF2000F0BDF80CB152
:101090002046DFE70020DDE72DE9F04106460F4658
:1010A000154658480078042800D076025548007844
:1010B00028B1002229461720FFF776FB04460022BC
:1010C00031461920FFF770FB044614B12046BDE8F5
:1010D000F0810020FFF7C7F9FF2000F095F8FF200E
:1010E00000F092F800BFFC2000F08EF84FF00008EE
:1010F00007E017F8010B00F087F808F101001FFA6C
:1011000080F8B8F5007FF4DBFF2000F07DF8FF20C9
:1011100000F07AF8FF2000F077F8044604F01F0092
:10112000052804D00120FFF79EF92046CFE7FFF7FE
:101130000AFB012803D1FFF796F90120C7E7681ED3
:10114000C0B2051ECFD1FD2000F05EF8044604B900
:10115000FE25FFF7F8FA20B10120FFF784F90120FE
:10116000B5E70120FFF77FF9FF2000F04DF8284692
:10117000ADE72DE9F04707460D4616469846002490
:10118000790200221120FFF70FFB8146B9F1000F11
:1011900002D04846BDE8F0870020FFF764F9FE2042
:1011A000FFF7BEFA20B10120FFF75DF90120F1E75A
:1011B000002404E0FF2000F027F8601C84B2B44251
:1011C000F8D306E0FF2000F01FF805F8010B601CC3
:1011D00084B206EB0800A042F4D804E0FF2000F03F
:1011E00013F8601C84B2B4F5007FF7DBFF2000F039
:1011F0000BF8FF2000F008F80120FFF734F9002079
:10120000C8E70000280000200246002105E0481C35
:10121000C1B2C82901DD002070475148008900F0A3
:1012200002000028F3D04E488281002105E0481CCE
:10123000C1B2C82901DD0020EEE74948008900F06D
:1012400001000028F3D046488089C0B2E4E700B529
:101250004448806940F0040042498861084680693A
:1012600040F48050886140480068C0F313003E4954
:101270000860084600683D4908433B4908603A4811
:101280000C30006840F0E00037490C310860344809
:101290000088334908800846008840F400700880C0
:1012A0000846008840F4807008800846008840F0B6
:1012B000040008800846008808800846008840F03E
:1012C000020008800846008840F0010008800846B7
:1012D000008840F0380008800846008808800846EA
:1012E000008840F040000880FF20FFF78DFF00BD20
:1012F0001B4909884FF6C7721140194A1180052809
:1013000025D2DFE800F003080F161D0014490988F4
:10131000134A11801BE01249098841F00801104A64
:10132000118014E00E49098841F010010C4A118027
:101330000DE00B49098841F01801094A118006E0C7
:101340000749098841F03801054A118000BF00BFF4
:101350000349098841F04001014A118070470000AB
:101360000030014000100240000801400000B0BB06
:1013700010B50446BE48844208D10121801400F013
:1013800005FB0021A01400F001FB16E0B9488442DF
:1013900008D10121001400F006FB0021201400F008
:1013A00002FB0AE0B448844207D10121C01300F0D7
:1013B000FAFA0021E01300F0F6FA10BD10B5002291
:1013C000028802F441520B884C8823438C882343C3
:1013D000CC8823430C8923434C8923438C892343A2
:1013E000CC8923431A430280838B4FF2FF7423403E
:1013F00083830B8A038210BD2DE9F04F85B005462B
:101400000C464FF0000902274FF000084FF0010B87
:101410000026B246A88B4FF240010840A883022064
:101420002884B5F81C90A068022801D100BF38E0DC
:10143000A08810B94FF0010B01E04FF0020B8D486E
:10144000854200D100E000BF684600F018FADDF8E0
:1014500000A0E088B0F5007F0AD14FEA1A2000EB27
:1014600080004000A168B0FBF1F0401D86B20BE0A7
:101470004FEA4B10BAFBF0F000EB80004000A1688F
:10148000B0FBF1F0401D86B20A20B6FBF0F606F084
:101490000108A6EB0800C0F34F074FF6FF7000EA03
:1014A0000828022F01DBFF2F02DD02274FF0000882
:1014B000E08840EA080038432884A088A1890843CE
:1014C000618808432188084340F4006040EA090924
:1014D000A5F81C9005B0BDE8F08F00210180418087
:1014E0008180C180018141818181C1810721018287
:1014F00070470021018041808180C180022181608C
:1015000000218181704721B1028842F040020280AF
:1015100004E002884FF6BF731A400280704721B181
:10152000828B42F48062828304E0828B4FF6FF3329
:101530001A408283704730B5002400230C11012526
:10154000A540ABB21AB185881D43858002E085882D
:101550009D43858030BD1AB183880B43838002E0B0
:1015600083888B43838070478181704701468889D7
:1015700070474FF6FF62914204D0028842F48072B5
:10158000028004E002884FF6FF631A400280704731
:1015900021B1828842F00402828004E082884FF602
:1015A000FB731A408280704702884FF2FF731A4023
:1015B000028002880A4302807047018841F480510A
:1015C0000180704721B1028842F40052028004E099
:1015D00002884DF6FF731A400280704702460020D1
:1015E000012901D0108B00E0908A70470146088ADB
:1015F0007047B1F5804F04D1028842F480420280E6
:1016000004E002884BF6FF731A40028070470246DE
:10161000002013890B400BB1012000E0002070472F
:10162000CA4302817047F0B502460020002400231F
:10163000002501F00F070126BE40B4B20B110126B0
:101640009E40B3B2968806EA03051689264016B175
:101650000DB1012000E00020F0BD10B5002201F026
:101660000F040123A3409AB2D343038110BD0000AD
:101670000030014000380040003C0040DF48006876
:1016800040F00100DD49086008464068DC49084038
:10169000DA49486008460068DA490840D7490860D6
:1016A0000846006820F4802008600846406820F45E
:1016B000FE0048604FF41F0088607047CF490968FA
:1016C00021F48031CD4A11601146096821F480214E
:1016D0001160B0F5803F03D0B0F5802F0ED106E049
:1016E000C649096841F48031C44A116007E0C34922
:1016F000096841F4A021C14A116000E000BF00BFA9
:10170000704710B501460022002300204A11012A2B
:1017100002D1BA4C236806E0022A02D1B74C236AF0
:1017200001E0B64C636A01F01F02012494401C40A2
:101730000CB1012000E0002010BD38B50020009061
:101740000024002500BF3120FFF7DBFF054600988D
:10175000401C00900098B0F5A06F01D0002DF2D091
:101760003120FFF7CEFF08B1012400E0002420461D
:1017700038BD01460020A14A106820F0F80040EA78
:10178000C10010607047A049086070470246002001
:101790009A4B586820F47C1042EA01031843974B97
:1017A0005860704798490866704701460020934A80
:1017B000506820F003000843506070478F4840682D
:1017C00000F00C007047014600208C4A506820F061
:1017D000F00008435060704701460020874A506877
:1017E00020F4E06008435060704701460020834ABF
:1017F000506820F4605040EAC1005060704729B141
:101800007E4A527A02437D4B5A7204E07B4A527AF6
:1018100082437A4B5A7270477B49D83108607047CF
:1018200001460020754A506820F44040084350604B
:1018300070470021714A20321170704A82F82010DE
:10184000012802D004280AD104E001216B4A203289
:10185000117005E00521694A2032117000E000BFD7
:1018600000BF70476949086070476449096A0143CD
:10187000624A11627047654944390860704730B563
:1018800000210022002400235C4D6D6805F00C014E
:1018900021B1042905D0082923D105E05C4D05605C
:1018A00022E05B4D05601FE0544D6D6805F4701239
:1018B000524D6D6805F48034022505EB92421CB947
:1018C000544D554305600BE04C4D6D6805F40035F3
:1018D0001DB1504D5543056002E04D4D5543056027
:1018E00002E04B4D056000BF00BF444D6D6805F040
:1018F000F0010909484D6B5C0568DD4045603F4DCE
:101900006D6805F4E061090A434D6B5C4568DD4094
:1019100085603A4D6D6805F46051C90A3E4D6B5CB7
:101920004568DD40C560354D6D6805F44041890B63
:101930003A4D6B5CC568B5FBF3F5056130BD29B167
:101940002E4A526902432D4B5A6104E02B4A5269D8
:1019500082432A4B5A61704729B1284A926902434F
:10196000264B9A6104E0254A92698243234B9A618F
:10197000704729B1214AD2690243204BDA6104E061
:101980001E4AD26982431D4BDA61704729B11B4A56
:10199000D2680243194BDA6004E0184AD2688243E5
:1019A000164BDA60704729B1144A12690243134B8F
:1019B0001A6104E0114A12698243104B1A617047A0
:1019C00012494039086070470F49C86470470B4995
:1019D000C87170470948406A40F080700749486202
:1019E000704701460020054A92680A400AB101206A
:1019F00000E00020704701498872704700100240E3
:101A00000000FFF8FFFFF6FE000042428004424261
:101A100000127A0000093D00290000203900002052
:101A20002348006820B122480068401E2049086011
:101A3000704770B500F03AF91E4800681E4AB0FBC6
:101A4000F2F1481EB0F1807F00D31BE0481E4FF03A
:101A5000E022506150170F22002804DB13071C0EF0
:101A6000164B1C5406E013071D0E154B00F00F0417
:101A7000241F1D5500BF00204FF0E0229061072079
:101A8000106100BF70BD0A49086000BF08490968BD
:101A90000029FBD1704700B5024603E04FF47A708D
:101AA000FFF7F1FF101EA2F10102F7D100BD000007
:101AB000400000204400002040420F0000E400E00D
:101AC00018ED00E02248806940F004002049886158
:101AD0002048006820F470001E490860084600682D
:101AE00040F48010086000207047002070470146D5
:101AF000002031B9184A52F82120164B10331A60D1
:101B000001E04FF0FF3070470146002039B9124A1A
:101B100032F8212012040F4B10331A6001E04FF00D
:101B2000FF30704730B5054600240BE00120A0408F
:101B3000284018B12046FFF7DAFF02E02046FFF701
:101B4000E3FF641C012CF1DB002030BD0120704755
:101B50000010024000080140942000080648804719
:101B600006480047FEE7FEE7FEE7FEE7FEE7FEE782
:101B7000FEE7FEE7FEE7FEE75F1C0008ED00000859
:101B80000CB50020019000906C48006840F4803053
:101B90006A49086000BF6948006800F4003000909E
:101BA0000198401C0190009818B90198B0F5A06FF9
:101BB000F1D16248006800F4003010B101200090BB
:101BC00001E0002000900098012843D15C480068A3
:101BD00040F010005A4908600846006820F00300F1
:101BE00008600846006840F00200086053484068FA
:101BF000524948600846406848600846406840F4DA
:101C0000806048600846406820F47C1048600846C0
:101C1000406840F4E81048600846006840F0807072
:101C2000086000BF4548006800F000700028F9D047
:101C30004248406820F00300404948600846406838
:101C400040F00200486000BF3C48406800F00C00D3
:101C50000828F9D10CBD10B5FFF792FF10BD10B5E3
:101C60003648006840F00100344908600846406882
:101C70003449084031494860084600683249084004
:101C80002E4908600846006820F480200860084655
:101C9000406820F4FE0048604FF41F008860FFF7A2
:101CA000DAFF4FF000602949086010BD10B500212F
:101CB00000200022214B5B6803F00C0121B10429B4
:101CC00006D0082928D107E0214B224C236027E0C9
:101CD0001F4B204C236023E0184B5B6803F470100B
:101CE000164B5B6803F48032022303EB904022B969
:101CF000194B4343174C23600DE0104B5B6803F412
:101D0000003323B1144B4343124C236003E0104BC8
:101D10004343104C236003E00D4B0E4C236000BF87
:101D200000BF064B5B68C3F303130C4CE15C094B2B
:101D30001B68CB40074C236010BD00000010024020
:101D4000002002400000FFF8FFFFF6FE08ED00E073
:101D500000127A004400002000093D0048000020E5
:101D60002DE9F05F0546002092469B4688460646D0
:101D7000814640241BE0284641464746224600F063
:101D800042F853465A46C01A914110D3114618469C
:101D9000224600F029F82D1A67EB01084F4622462B
:101DA0000120002100F020F817EB00094E41201E11
:101DB000A4F10104DFDC484631462A464346BDE82B
:101DC000F09F0000064C074D06E0E06840F001037C
:101DD00094E8070098471034AC42F6D3FEF78AF92E
:101DE00098200008B8200008202A04DB203A00FAD6
:101DF00002F1002070479140C2F1200320FA03F362
:101E0000194390407047202A04DB203A21FA02F05F
:101E10000021704721FA02F3D040C2F12002914024
:101E200008431946704700000FB4054B10B503A9CD
:101E3000044A029800F018F810BC5DF814FB00008A
:101E4000010100080000002002E008C8121F08C1BC
:101E5000002AFAD170477047002001E001C1121F2B
:101E6000002AFBD1704700002DE9FF4F8BB09A4646
:101E70000F460446002606E025280BD052460D9951
:101E80009047641C761C20780028F5D10FB03046AE
:101E9000BDE8F08F0025A94601227D4900E00543F9
:101EA00014F8013F203B02FA03F00842F7D12078F2
:101EB0002E2817D114F8010F45F004052A280ED05A
:101EC0006FF02F022078A0F1300109290AD809EB20
:101ED000890102EB410100EB0109641CF2E757F8AC
:101EE000049B641C20786C280DD004DC4C2812D094
:101EF0006A2811D104E074280DD07A280CD10AE0A8
:101F000045F4001507E0617845F48015814202D15F
:101F1000641C05F58015641C207869283ED006DC19
:101F20000028B3D063280BD0642804D136E073288E
:101F300010D075285CD052460D999047761CA5E0CC
:101F400017F8040B8DF8000000208DF80100E8461A
:101F5000012003E057F8048B4FF0FF3069074FF082
:101F6000000501D40AE06D1C4D450DDA8542FADB0F
:101F700018F805100029F6D106E06D1C8542FCDB3F
:101F800018F805100029F8D12E4404E018F8010BC8
:101F900052460D9990476D1EF8D277E000200A90C6
:101FA000C5F302504FF00A0B02280CD001CFC11725
:101FB000021E71F100020CDA0023D0EB030063EB88
:101FC00001012D2208E0FF1D27F00707F7E80201B5
:101FD000EEE72A0504D52B228DF82420012203E008
:101FE000EA070FD02022F7E70DF12008089218E049
:101FF00000200A90C5F302504FF00A0B022803D0CC
:1020000001CF00210022EFE7FF1D27F00707F7E8C7
:102010000201F7E75A460A9BFFF7A2FE303208F8A2
:10202000012D50EA0102F5D1ADEB080000F1200BC3
:10203000680701D44FF00109D94502DDA9EB0B0077
:1020400000E000208146002506E009A85246405DD8
:102050000D9990476D1C761C08988542F5DB04E0CD
:10206000302052460D999047761CB9F10001A9F134
:102070000109F5DC05E018F8010B52460D9990476F
:10208000761CBBF10001ABF1010BF4DC641CFAE639
:102090000928010020000000B820000800000020EE
:1020A00058000000481E00081021000858000020B9
:1020B000000A0000581E0008000000000000000098
:1020C0000000000000000000000000000000000010
:1020D0000000000000000000000000000000000000
:1020E00000000000000102030401020304060708C7
:1020F00009020406080000000000000000A24A04D3
:1021000000000000000000000102030406070809A7
:04000005080000ED02
:00000001FF
